{
  "_format": "hh-sol-artifact-1",
  "contractName": "Token",
  "sourceName": "contracts/Token.sol",
  "abi": [
    {
      "inputs": [],
      "stateMutability": "nonpayable",
      "type": "constructor"
    },
    {
      "inputs": [
        {
          "internalType": "address",
          "name": "account",
          "type": "address"
        }
      ],
      "name": "balanceOf",
      "outputs": [
        {
          "internalType": "uint256",
          "name": "",
          "type": "uint256"
        }
      ],
      "stateMutability": "view",
      "type": "function"
    },
    {
      "inputs": [],
      "name": "name",
      "outputs": [
        {
          "internalType": "string",
          "name": "",
          "type": "string"
        }
      ],
      "stateMutability": "view",
      "type": "function"
    },
    {
      "inputs": [],
      "name": "owner",
      "outputs": [
        {
          "internalType": "address",
          "name": "",
          "type": "address"
        }
      ],
      "stateMutability": "view",
      "type": "function"
    },
    {
      "inputs": [],
      "name": "symbol",
      "outputs": [
        {
          "internalType": "string",
          "name": "",
          "type": "string"
        }
      ],
      "stateMutability": "view",
      "type": "function"
    },
    {
      "inputs": [],
      "name": "totalSupply",
      "outputs": [
        {
          "internalType": "uint256",
          "name": "",
          "type": "uint256"
        }
      ],
      "stateMutability": "view",
      "type": "function"
    },
    {
      "inputs": [
        {
          "internalType": "address",
          "name": "to",
          "type": "address"
        },
        {
          "internalType": "uint256",
          "name": "amount",
          "type": "uint256"
        }
      ],
      "name": "transfer",
      "outputs": [],
      "stateMutability": "nonpayable",
      "type": "function"
    }
  ],
  "bytecode": "0x60806040526040518060400160405280600d81526020017f4861726468617420546f6b656e00000000000000000000000000000000000000815250600090816200004a91906200050f565b506040518060400160405280600381526020017f4848540000000000000000000000000000000000000000000000000000000000815250600190816200009191906200050f565b50612710600255348015620000a557600080fd5b5033600360006101000a81548173ffffffffffffffffffffffffffffffffffffffff021916908373ffffffffffffffffffffffffffffffffffffffff16021790555060025460046000600360009054906101000a900473ffffffffffffffffffffffffffffffffffffffff1673ffffffffffffffffffffffffffffffffffffffff1673ffffffffffffffffffffffffffffffffffffffff1681526020019081526020016000208190555062000182600360009054906101000a900473ffffffffffffffffffffffffffffffffffffffff166200018860201b60201c565b62000687565b62000228816040516024016200019f91906200063b565b6040516020818303038152906040527f2c2ecbc2000000000000000000000000000000000000000000000000000000007bffffffffffffffffffffffffffffffffffffffffffffffffffffffff19166020820180517bffffffffffffffffffffffffffffffffffffffffffffffffffffffff83818316178352505050506200022b60201b60201c565b50565b62000251816200024c6200025460201b620003ed176200027560201b60201c565b60201c565b50565b60006a636f6e736f6c652e6c6f679050600080835160208501845afa505050565b6200028960201b6200040e17819050919050565b6200029362000658565b565b600081519050919050565b7f4e487b7100000000000000000000000000000000000000000000000000000000600052604160045260246000fd5b7f4e487b7100000000000000000000000000000000000000000000000000000000600052602260045260246000fd5b600060028204905060018216806200031757607f821691505b6020821081036200032d576200032c620002cf565b5b50919050565b60008190508160005260206000209050919050565b60006020601f8301049050919050565b600082821b905092915050565b600060088302620003977fffffffffffffffffffffffffffffffffffffffffffffffffffffffffffffffff8262000358565b620003a3868362000358565b95508019841693508086168417925050509392505050565b6000819050919050565b6000819050919050565b6000620003f0620003ea620003e484620003bb565b620003c5565b620003bb565b9050919050565b6000819050919050565b6200040c83620003cf565b620004246200041b82620003f7565b84845462000365565b825550505050565b600090565b6200043b6200042c565b6200044881848462000401565b505050565b5b8181101562000470576200046460008262000431565b6001810190506200044e565b5050565b601f821115620004bf57620004898162000333565b620004948462000348565b81016020851015620004a4578190505b620004bc620004b38562000348565b8301826200044d565b50505b505050565b600082821c905092915050565b6000620004e460001984600802620004c4565b1980831691505092915050565b6000620004ff8383620004d1565b9150826002028217905092915050565b6200051a8262000295565b67ffffffffffffffff811115620005365762000535620002a0565b5b620005428254620002fe565b6200054f82828562000474565b600060209050601f83116001811462000587576000841562000572578287015190505b6200057e8582620004f1565b865550620005ee565b601f198416620005978662000333565b60005b82811015620005c1578489015182556001820191506020850194506020810190506200059a565b86831015620005e15784890151620005dd601f891682620004d1565b8355505b6001600288020188555050505b505050505050565b600073ffffffffffffffffffffffffffffffffffffffff82169050919050565b60006200062382620005f6565b9050919050565b620006358162000616565b82525050565b60006020820190506200065260008301846200062a565b92915050565b7f4e487b7100000000000000000000000000000000000000000000000000000000600052605160045260246000fd5b6107ec80620006976000396000f3fe608060405234801561001057600080fd5b50600436106100625760003560e01c806306fdde031461006757806318160ddd1461008557806370a08231146100a35780638da5cb5b146100d357806395d89b41146100f1578063a9059cbb1461010f575b600080fd5b61006f61012b565b60405161007c91906104a8565b60405180910390f35b61008d6101b9565b60405161009a91906104e3565b60405180910390f35b6100bd60048036038101906100b89190610561565b6101bf565b6040516100ca91906104e3565b60405180910390f35b6100db610208565b6040516100e8919061059d565b60405180910390f35b6100f961022e565b60405161010691906104a8565b60405180910390f35b610129600480360381019061012491906105e4565b6102bc565b005b6000805461013890610653565b80601f016020809104026020016040519081016040528092919081815260200182805461016490610653565b80156101b15780601f10610186576101008083540402835291602001916101b1565b820191906000526020600020905b81548152906001019060200180831161019457829003601f168201915b505050505081565b60025481565b6000600460008373ffffffffffffffffffffffffffffffffffffffff1673ffffffffffffffffffffffffffffffffffffffff168152602001908152602001600020549050919050565b600360009054906101000a900473ffffffffffffffffffffffffffffffffffffffff1681565b6001805461023b90610653565b80601f016020809104026020016040519081016040528092919081815260200182805461026790610653565b80156102b45780601f10610289576101008083540402835291602001916102b4565b820191906000526020600020905b81548152906001019060200180831161029757829003601f168201915b505050505081565b80600460003373ffffffffffffffffffffffffffffffffffffffff1673ffffffffffffffffffffffffffffffffffffffff168152602001908152602001600020541161033d576040517f08c379a0000000000000000000000000000000000000000000000000000000008152600401610334906106d0565b60405180910390fd5b80600460003373ffffffffffffffffffffffffffffffffffffffff1673ffffffffffffffffffffffffffffffffffffffff168152602001908152602001600020600082825461038c919061071f565b9250508190555080600460008473ffffffffffffffffffffffffffffffffffffffff1673ffffffffffffffffffffffffffffffffffffffff16815260200190815260200160002060008282546103e29190610753565b925050819055505050565b60006a636f6e736f6c652e6c6f679050600080835160208501845afa505050565b610416610787565b565b600081519050919050565b600082825260208201905092915050565b60005b83811015610452578082015181840152602081019050610437565b60008484015250505050565b6000601f19601f8301169050919050565b600061047a82610418565b6104848185610423565b9350610494818560208601610434565b61049d8161045e565b840191505092915050565b600060208201905081810360008301526104c2818461046f565b905092915050565b6000819050919050565b6104dd816104ca565b82525050565b60006020820190506104f860008301846104d4565b92915050565b600080fd5b600073ffffffffffffffffffffffffffffffffffffffff82169050919050565b600061052e82610503565b9050919050565b61053e81610523565b811461054957600080fd5b50565b60008135905061055b81610535565b92915050565b600060208284031215610577576105766104fe565b5b60006105858482850161054c565b91505092915050565b61059781610523565b82525050565b60006020820190506105b2600083018461058e565b92915050565b6105c1816104ca565b81146105cc57600080fd5b50565b6000813590506105de816105b8565b92915050565b600080604083850312156105fb576105fa6104fe565b5b60006106098582860161054c565b925050602061061a858286016105cf565b9150509250929050565b7f4e487b7100000000000000000000000000000000000000000000000000000000600052602260045260246000fd5b6000600282049050600182168061066b57607f821691505b60208210810361067e5761067d610624565b5b50919050565b7f4e6f7420656e6f75676820746f6b656e73000000000000000000000000000000600082015250565b60006106ba601183610423565b91506106c582610684565b602082019050919050565b600060208201905081810360008301526106e9816106ad565b9050919050565b7f4e487b7100000000000000000000000000000000000000000000000000000000600052601160045260246000fd5b600061072a826104ca565b9150610735836104ca565b925082820390508181111561074d5761074c6106f0565b5b92915050565b600061075e826104ca565b9150610769836104ca565b9250828201905080821115610781576107806106f0565b5b92915050565b7f4e487b7100000000000000000000000000000000000000000000000000000000600052605160045260246000fdfea2646970667358221220afbbb3c1664c931323a6324e268f720e36c4121da9e4aac23c7a8335b8717f5a64736f6c63430008130033",
  "linkReferences": {},
  "deployedLinkReferences": {}
}